S019000041544D45474120333220445249564552532E7372656398
S11300000C9432000C944F000C944F000C944F004D
S11300100C944F000C944F000C944F000C944F0020
S11300200C944F000C944F000C94B1020C94DD021C
S11300300C944F000C944F000C944F000C944F0000
S11300400C944F000C944F000C944F000C944F00F0
S11300500C944F00020108010E0114011A01200141
S113006026012C0111241FBECFE5D8E0DEBFCDBF91
S113007010E0A0E6B0E0ECE8F6E002C005900D92D6
S1130080A636B107D9F720E0A6E6B0E001C01D927C
S1130090AA37B207E1F70E9435010C9444030C948B
S11300A00000CF93C82F40E060E083E00E94CF01BE
S11300B040E061E083E00E94CF016C2F70E082E0B9
S11300C090E00E94BF0141E062E083E00E94CF0122
S11300D089EF90E00197F1F700C0000040E062E092
S11300E083E00E94CF0189EF90E00197F1F700C00F
S11300F00000CF9108956FEF82E00E94AF0141E0CC
S113010060E083E00E94400241E061E083E00E94FD
S1130110400241E062E083E00E9440028BE49DE102
S11301200197F1F700C000008CE30E94510089EFB1
S113013090E00197F1F700C000008FE00E945100A9
S113014089EF90E00197F1F700C0000081E00E9480
S1130150510083EF91E00197F1F700C0000086E0C1
S11301600E9451000895CF93C82F41E060E083E0DE
S11301700E94CF0140E061E083E00E94CF016C2F38
S113018070E082E090E00E94BF0141E062E083E021
S11301900E94CF0189EF90E00197F1F700C00000C1
S11301A040E062E083E00E94CF0189EF90E0019794
S11301B0F1F700C00000CF910895CF93DF93EC01D5
S11301C003C00E94B300219688818111FACFDF9188
S11301D0CF910895813019F0823031F0089580E88C
S11301E0860F0E945100089580EC860F0E945100F2
S11301F0089590E088309105A0F5FC01E65DFF4F7D
S11302000C9409038BB340E060E00E94400208951F
S11302108BB340E061E00E94400208958BB340E05C
S113022062E00E94400208958BB340E063E00E94C4
S1130230400208958BB340E064E00E9440020895B8
S11302408BB340E065E00E94400208958BB340E028
S113025066E00E94400208958BB340E067E00E948C
S1130260400208950E949B010895CF93DF9300D02C
S1130270CDB7DEB780E090E00E94F90087EA91E60E
S11302800197F1F700C000000E947B0080E489839D
S11302901A82CE0101960E94860180E690E00E94B7
S11302A0DD009FE926E881E0915020408040E1F79D
S11302B000C0000060E080E00E94EA0080E090E07E
S11302C00E94320190937100809370004AE066E6C8
S11302D070E00E940F0386E690E00E94DD008091AA
S11302E07000909171000A97C0F681E00E9451005D
S11302F086E690E00E94DD009FE926E881E09150C7
S113030020408040E1F700C00000C7CFFC0190818D
S1130310992321F0903411F0903C19F487B1982B73
S113032097B98181873018F496B1892B86B986B143
S1130330806886B90895811105C097B18095892395
S113034087B903C097B1892B87B986B1806486B910
S113035024B185B190E0982F8827822B08958130AD
S113036041F028F0823039F0833039F008956ABBC7
S1130370089567BB089564BB089561BB08958130F7
S113038041F028F0823039F0833039F008956BBBA6
S1130390089568BB089565BB089562BB089544231E
S11303A0B9F1413009F06BC0813089F028F0823016
S11303B0C9F0833011F108952BB381E090E002C0BD
S11303C0880F991F6A95E2F7822B8BBB089528B397
S11303D081E090E002C0880F991F6A95E2F7822BB2
S11303E088BB089525B381E090E002C0880F991F6F
S11303F06A95E2F7822B85BB089522B381E090E0F1
S113040002C0880F991F6A95E2F7822B82BB089578
S1130410813091F028F08230D9F0833029F10895A9
S11304202BB381E090E002C0880F991F6A95E2F730
S1130430809582238BBB089528B381E090E002C0AD
S1130440880F991F6A95E2F78095822388BB0895E7
S113045025B381E090E002C0880F991F6A95E2F706
S11304608095822385BB089522B381E090E002C089
S1130470880F991F6A95E2F78095822382BB0895BD
S11304804423B9F1413009F06BC0813089F028F080
S11304908230C9F0833011F108952AB381E090E0ED
S11304A002C0880F991F6A95E2F7822B8ABB0895D0
S11304B027B381E090E002C0880F991F6A95E2F7A4
S11304C0822B87BB089524B381E090E002C0880F9B
S11304D0991F6A95E2F7822B84BB089521B381E0CA
S11304E090E002C0880F991F6A95E2F7822B81BBC6
S11304F00895813091F028F08230D9F0833029F1C9
S113050008952AB381E090E002C0880F991F6A958C
S1130510E2F7809582238ABB089527B381E090E0B7
S113052002C0880F991F6A95E2F78095822387BBE2
S1130530089524B381E090E002C0880F991F6A9562
S1130540E2F78095822384BB089521B381E090E093
S113055002C0880F991F6A95E2F78095822381BBB8
S113056008951F920F920FB60F9211242F933F9369
S11305704F935F936F937F938F939F93AF93BF93A7
S1130580EF93FF93809176008F5F80937600E091E4
S11305907200F09173000995FF91EF91BF91AF91B3
S11305A09F918F917F916F915F914F913F912F9187
S11305B00F900FBE0F901F9018951F920F920FB6B9
S11305C00F9211242F933F934F935F936F937F93D5
S11305D08F939F93AF93BF93EF93FF938091770093
S11305E08F5F80937700E0917800F091790009950E
S11305F0FF91EF91BF91AF919F918F917F916F91F7
S11306005F914F913F912F910F900FBE0F901F90CC
S11306101895EE0FFF1F0590F491E02D0994BB2768
S11306204A3031F4992322F4BDE2909581959F4F8D
S11306300C941B03BB27FB015527AA27880F991F7E
S1130640AA1FA41710F0A41B83955051B9F7A05DFD
S1130650AA3308F0A95DA193009779F7B111B1937A
S11306601192CB010C943403DC01FC01672F7191CE
S11306707723E1F7329704C07C916D937083629184
S10F0680AE17BF07C8F30895F894FFCF2D
S109068C4144433D00005F
S9030000FC
