:100000000C942A000C9434000C9434000C943400AA
:100010000C9434000C9434000C9434000C94340090
:100020000C9434000C9434000C9434000C94340080
:100030000C9434000C9434000C9434000C94340070
:100040000C9434000C9434000C9434000C94340060
:100050000C94340011241FBECFE5D8E0DEBFCDBF25
:100060000E9436000C94BD000C9400008FEF8ABBF8
:1000700081B38E7F81BB82B3816082BB809B61C074
:1000800063C08BB381608BBB2FE78AE196E0215080
:1000900080409040E1F700C000008BB382608BBBD2
:1000A0002FE78AE196E0215080409040E1F700C0C0
:1000B00000008BB384608BBB2FE78AE196E0215070
:1000C00080409040E1F700C000008BB388608BBB9C
:1000D0002FE78AE196E0215080409040E1F700C090
:1000E00000008BB380618BBB2FE78AE196E0215043
:1000F00080409040E1F700C000008BB380628BBB72
:100100002FE78AE196E0215080409040E1F700C05F
:1001100000008BB380648BBB2FE78AE196E021500F
:1001200080409040E1F700C000008BB380688BBB3B
:100130002FE78AE196E0215080409040E1F700C02F
:100140000000809B9ECF9ACF8BB38E7F8BBB8BB3EF
:100150008D7F8BBB8BB38B7F8BBB8BB3877F8BBB35
:100160008BB38F7E8BBB8BB38F7D8BBB8BB38F7B26
:0E0170008BBB8BB38F778BBB81CFF894FFCF07
:00000001FF
