:100000000C942A000C943F000C943F000C943F0089
:100010000C943F000C943F000C943F000C943F0064
:100020000C943F000C943F000C943F000C943F0054
:100030000C943F000C943F000C943F000C943F0044
:100040000C943F000C943F000C943F000C943F0034
:100050000C943F0011241FBECFE5D8E0DEBFCDBF1A
:1000600010E0A0E6B0E0E6E7F1E002C005900D92F6
:10007000A836B107D9F70E94B2000C94B9000C94CD
:10008000000085B3826085BB89EF90E00197F1F7AE
:1000900000C0000085B38D7F85BB91E29A95F1F792
:1000A00000000895CF93C82F85B38B7F85BB8C2F1D
:1000B000807F8BBB0E944100C295C07FCBBB0E945A
:1000C0004100CF91089581E00E94520083EF91E0BA
:1000D0000197F1F700C0000086E00E9452000895E9
:1000E00082E00E94520088E20E94520008958FEF41
:1000F0008ABB84BB85B38D7F85BB8FE493EC01976E
:10010000F1F700C000000E9470000E9463008FE0C1
:100110000E9452000895CF93C82F8BB384608BBB8D
:100120008C2F807F8BBB85B3846085BB0E94410090
:10013000C295C07FCBBB0E944100CF9108950F9321
:100140001F93CF938C01C0E003C00E948B00CF5F50
:10015000F801EC0FF11D80818111F7CFCF911F9134
:100160000F9108950E94770080E690E00E949F0022
:06017000FFCFF894FFCF61
:08017600616E64726577000000
:00000001FF
