:100000000C942A000C9436000C9455000C94740047
:100010000C94AF000C94AF000C94AF000C94AF00A4
:100020000C94AF000C94AF000C94AF000C94AF0094
:100030000C94AF000C94AF000C94AF000C94AF0084
:100040000C94AF000C94AF000C94AF000C94AF0074
:100050000C94AF0011241FBECFE5D8E0DEBFCDBFAA
:0C0060000E94AC000C943400F894FFCF18
:10006C001F920F920FB60F9211242F938F939F9381
:10007C0082B3806282BB2FE986E891E021508040F8
:10008C009040E1F700C0000082B38F7D82BB9F914E
:0E009C008F912F910F900FBE0F901F9018950F
:1000AA001F920F920FB60F9211242F938F939F9343
:1000BA0082B3806482BB2FE986E891E021508040B8
:1000CA009040E1F700C0000082B38F7B82BB9F9112
:0E00DA008F912F910F900FBE0F901F901895D1
:1000E8001F920F920FB60F9211242F938F939F9305
:1000F80082B3806882BB2FE986E891E02150804076
:100108009040E1F700C0000082B38F7782BB9F91D7
:0E0118008F912F910F900FBE0F901F90189592
:1001260081B3806281BB81B3806481BB81B3806807
:1001360081BB85B7807F85BF85B78D6085BF84B756
:100146008F7B84BF8BB7806E8BBF8FB780688FBF66
:0201560008950A
:060158000E949300FFCF9E
:04015E000C940000FD
:00000001FF
