S01200004C43445F4B45595041442E7372656322
S11300000C942A000C943F000C943F000C943F0085
S11300100C943F000C943F000C943F000C943F0060
S11300200C943F000C943F000C943F000C943F0050
S11300300C943F000C943F000C943F000C943F0040
S11300400C943F000C943F000C943F000C943F0030
S11300500C943F0011241FBECFE5D8E0DEBFCDBF16
S113006010E0A0E6B0E0E2E1F3E002C005900D92FA
S1130070A037B107D9F70E9476010C9487010C943C
S1130080000087B3807F87BB87B3806F87BB8FEF08
S113009088BB08950F931F93CF93DF9340E050E004
S11300A09DC038B3E0E6F0E081E090E08C01008090
S11300B002C0000F111F0A94E2F7EC01028002C093
S11300C0CC0FDD1F0A94E2F7DC01048002C0AA0F02
S11300D0BB1F0A94E2F7BC01068002C0660F771FBB
S11300E00A94E2F72C2F202B2A2B262B232B28BB18
S11300F028B3FA01EE0FFF1FE05AFF4F008002C041
S1130100880F991F0A94E2F78095822388BB60E0E8
S113011070E05EC086B3FB01EE0FFF1FE859FF4F8E
S1130120208190E0022E02C0959587950A94E2F70B
S113013080FD4CC086B390E0022E02C09595879551
S11301400A94E2F780FFF6CF41305105C9F024F458
S11301504115510541F03AC042305105F1F04330A8
S1130160510541F133C061157105F1F1613071053B
S1130170E9F162307105E1F16330710539F53AC096
S113018061157105C9F161307105C1F16230710504
S1130190B9F163307105D1F435C061157105A1F170
S11301A06130710599F16230710591F16330710527
S11301B069F430C06115710579F16130710571F12F
S11301C06230710569F16330710561F16F5F7F4FD2
S11301D0643071050CF49ECF4F5F5F4F443051057E
S11301E00CF45FCF80E01FC087E31DC084E31BC015
S11301F081E319C081E217C088E315C085E313C009
S113020082E311C080E30FC089E30DC086E30BC015
S113021083E309C08DE307C08FE205C08AE203C00F
S11302208DE201C08BE2DF91CF911F910F91089570
S113023085B3826085BB89EF90E00197F1F700C038
S1130240000085B38D7F85BB91E29A95F1F700009C
S11302500895CF93C82F85B38B7F85BB8C2F807F68
S11302608BBB0E941801C295C07FCBBB0E941801B2
S1130270CF91089581E00E94290183EF91E00197D5
S1130280F1F700C0000086E00E942901089582E091
S11302900E94290188E20E94290108958FEF8ABBF8
S11302A084BB85B38D7F85BB8FE493EC0197F1F715
S11302B000C000000E9447010E943A018FE00E94A2
S11302C029010895CF93C82F8BB384608BBB8C2FE7
S11302D0807F8BBB85B3846085BB0E941801C29567
S11302E0C07FCBBB0E941801CF9108950E944E019C
S11302F00E9441000E944A008823E1F3813221F4E4
S113030081E00E942901F6CF0E946201F3CFF894A4
S1050310FFCF19
S113031204000500060007000000010002000300BB
S9030000FC
