S019000041544D45474120333220445249564552532E7372656398
S11300000C942A000C9447000C9447000C9447006D
S11300100C9447000C9447000C9447000C94470040
S11300200C9447000C9447000C941B010C9442015F
S11300300C9447000C9447000C9447000C94470020
S11300400C9447000C9447000C9447000C94470010
S11300500C94470011241FBECFE5D8E0DEBFCDBF0E
S113006010E0A0E6B0E0E0EEF2E002C005900D92F0
S1130070A636B107D9F720E0A6E6B0E001C01D928C
S1130080AE36B207E1F70E9457000C946E010C944F
S1130090000088B360E00E947F0087EA91E6019740
S11300A0F1F700C0000080916B008BBB0895CF93E3
S11300B0DF9300D000D000D0CDB7DEB78FEF8ABB7E
S11300C087BB84BB81BB7894CE0101960E940E014C
S11300D0898182BB89E490E00E94160185E0E0E614
S11300E0F0E0DE01129601900D928A95E1F787EF18
S11300F00E941301CE0102960E94B300FFCF81300B
S113010089F028F08230C9F0833011F108952BB3BF
S113011081E090E002C0880F991F6A95E2F7822778
S11301208BBB089528B381E090E002C0880F991F2B
S11301306A95E2F7822788BB089525B381E090E0B1
S113014002C0880F991F6A95E2F7822785BB08953C
S113015022B381E090E002C0880F991F6A95E2F70C
S1130160822782BB0895009709F454C090936900D4
S113017080936800FC018081803411F0883079F428
S1130180803439F483B7806483BF83B7886083BFC6
S113019006C083B7806483BF83B7877F83BFE09142
S11301A06800F09169008381883018F493B7892B33
S11301B083BFE0916800F09169008181882311F088
S11301C0823019F499B7892B89BFE0916800F091C6
S11301D069008281823018F499B7892B89BFE09134
S11301E06800F09169008481803311F08032A1F4B9
S11301F0803341F483B7806283BF83B7806183BF58
S113020080E0089583B7806283BF83B78F7E83BF06
S113021080E0089581E0089581E008952CB7FC0101
S1130220208381E008958CBF81E008959093670056
S11302308093660008951F920F920FB60F921124B7
S11302402F933F934F935F936F937F938F939F93DA
S1130250AF93BF93EF93FF93E0916600F091670033
S11302600995FF91EF91BF91AF919F918F917F91EC
S11302706F915F914F913F912F910F900FBE0F900F
S11302801F9018951F920F920FB60F9211242F935F
S11302903F934F935F936F937F938F939F93AF930A
S11302A0BF93EF93FF9380916B008F5F80936B00FC
S11302B0E0916C00F0916D000995FF91EF91BF9171
S11302C0AF919F918F917F916F915F914F913F91EA
S11302D02F910F900FBE0F901F901895F894FFCF99
S10902E0080200022000E8
S9030000FC
