S01A000041544D45474133322050524F4A45435420312E737265636E
S11300000C942A000C9434000C9434000C943400A6
S11300100C9434000C9434000C9434000C9434008C
S11300200C9434000C9434000C9434000C9434007C
S11300300C9434000C9434000C9434000C9434006C
S11300400C9434000C9434000C9434000C9434005C
S11300500C94340011241FBECFE5D8E0DEBFCDBF21
S11300600E9436000C94F9000C9400008FEF8ABBB8
S11300708BB381608BBB2FE78AE196E021508040EF
S11300809040E1F700C000008BB382608BBB2FE788
S11300908AE196E0215080409040E1F700C00000E2
S11300A08BB384608BBB2FE78AE196E021508040BC
S11300B09040E1F700C000008BB388608BBB2FE752
S11300C08AE196E0215080409040E1F700C00000B2
S11300D08BB380618BBB2FE78AE196E0215080408F
S11300E09040E1F700C000008BB380628BBB2FE728
S11300F08AE196E0215080409040E1F700C0000082
S11301008BB380648BBB2FE78AE196E0215080405B
S11301109040E1F700C000008BB380688BBB2FE7F1
S11301208AE196E0215080409040E1F700C0000051
S11301308BB38F778BBB2FE78AE196E02150804009
S11301409040E1F700C000008BB38F7B8BBB2FE79F
S11301508AE196E0215080409040E1F700C0000021
S11301608BB38F7D8BBB2FE78AE196E021508040D3
S11301709040E1F700C000008BB38F7E8BBB2FE76C
S11301808AE196E0215080409040E1F700C00000F1
S11301908BB3877F8BBB2FE78AE196E021508040A9
S11301A09040E1F700C000008BB38B7F8BBB2FE73F
S11301B08AE196E0215080409040E1F700C00000C1
S11301C08BB38D7F8BBB2FE78AE196E02150804073
S11301D09040E1F700C000008BB38E7F8BBB2FE70C
S11301E08AE196E0215080409040E1F700C0000091
S10901F03FCFF894FFCF9D
S9030000FC
