:100000000C942A000C9447000C9447000C94470071
:100010000C9447000C9447000C9447000C94470044
:100020000C9447000C9447000C9408010C94340184
:100030000C9447000C9447000C9447000C94470024
:100040000C9447000C9447000C9447000C94470014
:100050000C94470011241FBECFE5D8E0DEBFCDBF12
:1000600010E0A0E6B0E0E4ECF2E002C005900D92F2
:10007000A636B107D9F720E0A6E6B0E001C01D9290
:10008000AE36B207E1F70E9469000C9460010C944F
:100090000000CF93DF9300D000D01F92CDB7DEB722
:1000A00085E0E0E6F0E0DE01119601900D928A9580
:1000B000E1F7CE0101960E94A8000F900F900F90DB
:1000C0000F900F90DF91CF91089590E00E9403016F
:1000D00008956FEF81E00E94980078940E94490093
:1000E00080E090E00E9465002FED83E994E02150CC
:1000F00080409040E1F700C000008AE590E00E9457
:1001000065002FED83E994E0215080409040E1F7B5
:1001100000C0000084EB90E00E9465002FED83E9B1
:1001200094E0215080409040E1F700C00000D8CF1B
:10013000813041F028F0823039F0833039F0089571
:100140006ABB089567BB089564BB089561BB0895B9
:10015000009709F454C09093690080936800FC01F3
:100160008081803411F0883079F4803439F483B799
:10017000806483BF83B7886083BF06C083B7806411
:1001800083BF83B7877F83BFE0916800F0916900E8
:100190008381883018F493B7892B83BFE09168007E
:1001A000F09169008181882311F0823019F499B7A8
:1001B000892B89BFE0916800F091690082818230CB
:1001C00018F499B7892B89BFE0916800F091690014
:1001D0008481803311F08032A1F4803341F483B7FD
:1001E000806283BF83B7806183BF80E0089583B757
:1001F000806283BF83B78F7E83BF80E0089581E0F4
:10020000089581E008952CB7FC01208381E00895D2
:100210001F920F920FB60F9211242F933F934F937B
:100220005F936F937F938F939F93AF93BF93EF935E
:10023000FF9380916A008F5F80936A00E09166006F
:10024000F09167000995FF91EF91BF91AF919F9158
:100250008F917F916F915F914F913F912F910F906F
:100260000FBE0F901F9018951F920F920FB60F920E
:1002700011242F933F934F935F936F937F938F93AB
:100280009F93AF93BF93EF93FF9380916B008F5F2A
:1002900080936B00E0916C00F0916D000995FF91E7
:1002A000EF91BF91AF919F918F917F916F915F91EE
:1002B0004F913F912F910F900FBE0F901F90189567
:0402C000F894FFCFE0
:0602C400400000023000C2
:00000001FF
