S019000041544D45474120333220445249564552532E7372656398
S11300000C942A000C9447000C9447000C9447006D
S11300100C9447000C9447000C9447000C94470040
S11300200C9447000C9447000C94A5000C94CC004D
S11300300C9447000C9447000C9447000C94470020
S11300400C9447000C9447000C9447000C94470010
S11300500C94470011241FBECFE5D8E0DEBFCDBF0E
S113006010E0A0E6B0E0E4EFF1E002C005900D92EC
S1130070A036B107D9F720E0A0E6B0E001C01D9298
S1130080A736B207E1F70E944D000C94F8000C94D7
S113009000008BB380958BBB0895CF93DF9300D082
S11300A000D0CDB7DEB78FEF8ABB789489E490E0B7
S11300B00E94A00088E0898382E08A831B828C836B
S11300C080EF0E949D00CE0101960E946800FFCF40
S11300D0009779F19093640080936300FC01808120
S11300E0882311F0883019F493B7892B83BFE091EA
S11300F06300F09164008381883018F493B7892BEE
S113010083BFE0916300F09164008181882311F042
S1130110823019F499B7892B89BFE0916300F0917B
S113012064008281823038F499B7892B89BF80E0DA
S1130130089581E0089581E008958CBF81E00895D9
S1130140909361008093600008951F920F920FB600
S11301500F9211242F933F934F935F936F937F9349
S11301608F939F93AF93BF93EF93FF93E0916000BE
S1130170F09161000995FF91EF91BF91AF919F912B
S11301808F917F916F915F914F913F912F910F903C
S11301900FBE0F901F9018951F920F920FB60F92DB
S11301A011242F933F934F935F936F937F938F9378
S11301B09F93AF93BF93EF93FF93809162008F5F00
S11301C080936200E0916500F09166000995FF91CB
S11301D0EF91BF91AF919F918F917F916F915F91BB
S11301E04F913F912F910F900FBE0F901F90189534
S10701F0F894FFCFAD
S9030000FC
